:020000040000fa
:080000000002040000000000f2
:020000040000fa
:040008000e190000cd
:020000040000fa
:04000c0012190000c5
:020000040000fa
:0400100016190000bd
:020000040000fa
:0400140018190000b7
:020000040000fa
:040018001c190000af
:020000040000fa
:04001c0020190000a7
:020000040000fa
:04002000241900009f
:020000040000fa
:04002400721900004d
:020000040000fa
:040028007219000049
:020000040000fa
:04002c007219000045
:020000040000fa
:040030007219000041
:020000040000fa
:040034005c04000068
:020000040000fa
:040038005c1900004f
:020000040000fa
:04003c007219000035
:020000040000fa
:040040007219000031
:020000040000fa
:04004400721900002d
:020000040000fa
:040048001a03000097
:020000040000fa
:04004c007219000025
:020000040000fa
:04005000b0150000e7
:020000040000fa
:04005400721900001d
:020000040000fa
:040058007219000019
:020000040000fa
:04005c003404000068
:020000040000fa
:040060007219000011
:020000040000fa
:04006400721900000d
:020000040000fa
:040068007219000009
:020000040000fa
:04006c007219000005
:020000040000fa
:040070007219000001
:020000040000fa
:0400740072190000fd
:020000040000fa
:040078004c04000034
:020000040000fa
:04007c004804000034
:020000040000fa
:0400800072190000f1
:020000040000fa
:0400840072190000ed
:020000040000fa
:0400880060190000fb
:020000040000fa
:04008c0072190000e5
:020000040000fa
:0400900072190000e1
:020000040000fa
:0400940072190000dd
:020000040000fa
:04009800560300000b
:020000040000fa
:04009c0072190000d5
:020000040000fa
:0400a000f81700004d
:020000040000fa
:0400a400c21800007e
:020000040000fa
:0400a80072190000c9
:020000040000fa
:0400ac0084140000b8
:020000040000fa
:0400b00072190000c1
:020000040000fa
:0400b4002619000009
:020000040000fa
:0400b80072190000b9
:020000040000fa
:0400bc0072190000b5
:020000040000fa
:0400c00072190000b1
:020000040000fa
:0400c40072190000ad
:020000040000fa
:0400c80072190000a9
:020000040000fa
:0400cc0072190000a5
:020000040000fa
:0400d00072190000a1
:020000040000fa
:0400d400721900009d
:020000040000fa
:0400d8007219000099
:020000040000fa
:0400dc007219000095
:020000040000fa
:0400e0007219000091
:020000040000fa
:0400e400721900008d
:020000040000fa
:0400e8007219000089
:020000040000fa
:0400ec007219000085
:020000040000fa
:0400f000641900008f
:020000040000fa
:0400f400721900007d
:020000040000fa
:0400f8007219000079
:020000040000fa
:0400fc007219000075
:020000040000fa
:040100007219000070
:020000040000fa
:04010400721900006c
:020000040000fa
:040108007219000068
:020000040000fa
:04010c007219000064
:020000040000fa
:040110007219000060
:020000040000fa
:04011400721900005c
:020000040000fa
:040118007219000058
:020000040000fa
:04011c007219000054
:020000040000fa
:040120007219000050
:020000040000fa
:04012400721900004c
:020000040000fa
:040128007219000048
:020000040000fa
:04012c007219000044
:020000040000fa
:040130007219000040
:020000040000fa
:04013400721900003c
:020000040000fa
:040138007219000038
:020000040000fa
:04013c007219000034
:020000040000fa
:040140007219000030
:020000040000fa
:04014400721900002c
:020000040000fa
:040148007219000028
:020000040000fa
:04014c007219000024
:020000040000fa
:040150007219000020
:020000040000fa
:04015400721900001c
:020000040000fa
:040158007219000018
:020000040000fa
:04015c007219000014
:020000040000fa
:040160007219000010
:020000040000fa
:04016400721900000c
:020000040000fa
:040168007219000008
:020000040000fa
:04016c007219000004
:020000040000fa
:040170007219000000
:020000040000fa
:0401740072190000fc
:020000040000fa
:0401780072190000f8
:020000040000fa
:04017c0072190000f4
:020000040000fa
:04018000ee0200008b
:020000040000fa
:0401840072190000ec
:020000040000fa
:0401880072190000e8
:020000040000fa
:04018c0072190000e4
:020000040000fa
:0401900072190000e0
:020000040000fa
:040194004010000017
:020000040000fa
:0401980072190000d8
:020000040000fa
:04019c0072190000d4
:020000040000fa
:0401a00092030000c6
:020000040000fa
:0401a40072190000cc
:020000040000fa
:0401a80072190000c8
:020000040000fa
:0401ac00300400001b
:020000040000fa
:0401b00072190000c0
:020000040000fa
:0401b40072190000bc
:020000040000fa
:0401b80072190000b8
:020000040000fa
:0401bc0072190000b4
:020000040000fa
:0401c00072190000b0
:020000040000fa
:0401c40072190000ac
:020000040000fa
:0401c80072190000a8
:020000040000fa
:0401cc0072190000a4
:020000040000fa
:0401d00072190000a0
:020000040000fa
:0401d400721900009c
:020000040000fa
:0401d8007219000098
:020000040000fa
:0401dc007219000094
:020000040000fa
:0401e0007219000090
:020000040000fa
:0401e400721900008c
:020000040000fa
:0401e8007219000088
:020000040000fa
:0401ec007219000084
:020000040000fa
:0401f0007219000080
:020000040000fa
:0401f400721900007c
:020000040000fa
:0401f8007219000078
:020000040000fa
:0401fc007219000074
:020000040000fa
:04020000721900006f
:020000040000fa
:04020400721900006b
:020000040000fa
:040208007219000067
:020000040000fa
:04020c007219000063
:020000040000fa
:04021000721900005f
:020000040000fa
:04021400721900005b
:020000040000fa
:040218007219000057
:020000040000fa
:04021c007219000053
:020000040000fa
:04022000721900004f
:020000040000fa
:04022400721900004b
:020000040000fa
:040228007219000047
:020000040000fa
:04022c007219000043
:020000040000fa
:04023000721900003f
:020000040000fa
:04023400721900003b
:020000040000fa
:040238007219000037
:020000040000fa
:04023c007219000033
:020000040000fa
:04024000721900002f
:020000040000fa
:04024400721900002b
:020000040000fa
:040248007219000027
:020000040000fa
:04024c007219000023
:020000040000fa
:04025000721900001f
:020000040000fa
:04025400721900001b
:020000040000fa
:040258007219000017
:020000040000fa
:04025c007219000013
:020000040000fa
:04026000721900000f
:020000040000fa
:04026400721900000b
:020000040000fa
:100400000fae26000eff27000e018800000000003e
:10041000000020000000e000020032000001200087
:10042000200288000e000700a05b230011002000be
:10043000810f7000010032000f0007000000200053
:100440000000e00002003200000002000000000096
:100450008c180200010000000040da000000fe00dd
:10046000603e20000000e00002003200002020007a
:100470009001880000000600a10288008004780036
:100480000000eb001f003700e284440054a0b400d9
:100490009905ba00e284440054a0b4009906ba0059
:1004a000e284440054a0b4000006eb00476fde0075
:1004b000fd07b200ae018800636ce10003003a0062
:1004c0000ad801000000eb000e003700606ce1006c
:1004d00008003a00004deb000a05e8000200390070
:1004e0003420ec000af0a0008b05e900f9ff3e0083
:1004f000040037006168e100010032000086eb0073
:100500000b00070019c7ba000e04e0001905ba0075
:1005100003003a000a00e000dbff3a00000006009a
:10052000fe07b200ae0288008a047800f5ff3700ab
:100530000cd0a300e20f4d001c00390089027800a6
:10054000354dba000a05e800020039003420ec00fd
:100550000af0a0008b05e9000f003200254dba001b
:100560000a05e800020039003420ec000af0a0007f
:100570008b05e900080032000c00e00006003200a4
:1005800015cdba000a05e800020039003420ec005d
:100590000af0a0008b05e9008984e80054a0b400ab
:1005a0000b00e000e2ff3a00000006009902ba00ea
:1005b000055d78008b05e900f7ff3200c82ade00f0
:1005c000055d78008b05e900f3ff32000c00e000c8
:1005d000f1ff320019ddba00eeff37003600f800f7
:1005e000809fbe00829fbe00849fbe00869fbe008b
:1005f0003200f8003400f80010002000a00188004c
:10060000002020009001880000000000a82b0200bc
:10061000010000003400f9003200f9004f03be0071
:100620004f02be004f01be004f00be003600f90071
:1006300000400600809fbe000108a900e01b2500c5
:100640001004e0000c003a00908e8200a18e82001f
:1006500061005000e0805800908e8a00a18e8a00d0
:10066000b08d820070088800c08d8200600888000c
:100670004f00be0000400600908e8200a18e8200d6
:1006800061004000e0804800908e8a00a18e8a00c0
:10069000b08d820070088800c08d820060088800dc
:1006a0004f00be0000400600f3ff3700809fbe00f1
:1006b0000388a900f01b25001004e0000c003a009c
:1006c000b08e8200c18e820061005000e080580030
:1006d000b08e8a00c18e8a00d08d8200e00888002a
:1006e000e08d8200d00888004f00be000040060068
:1006f000b08e8200c18e820061004000e080480020
:10070000b08e8a00c18e8a00d08d8200e0088800f9
:10071000e08d8200d00888004f00be000040060037
:10072000f3ff3700809fbe00829fbe00849fbe0003
:10073000869fbe000bc8a9002108a900928e8200e6
:1007400082838800a08e8200908388002108a80000
:10075000f23fb200818b82008201d000401e250052
:1007600080814100130bb8005315200082814100a5
:10077000f33fb2008301d00080814100130ab8002a
:10078000a22ab000f23fb2000201d00000014100f5
:100790001209b80037618800356288003363880029
:1007a0002388a900b28e8200a2838800c18e8200b5
:1007b000b18388002388a800f23fb200918b8200a9
:1007c0008201d00080814100130bb8005315200036
:1007d00082814100f33fb2008301d000808141005b
:1007e000130ab800a22ab000f23fb2000201d00002
:1007f000000041001008b8003764880035658800a3
:10080000316688008007210090407800e3cf5000d7
:100810000b00360011002000118f8a0065aea90080
:10082000f2ff230042138800014878004f03be0006
:100830004f02be004f01be004f00be000040060048
:100840008140e800014878004f03be004f02be001f
:100850004f01be004f00be0000400600f8ff370009
:100860000c28a90000400600801f7800a018800016
:1008700020848800b018800030848800c018800070
:100880004084880001a8a9004f00780000400600bd
:1008900002a8a90000400600801f78000288a90075
:1008a000e000200010108b00346ea9004822ef00f9
:1008b0004f007800004006003600f800809fbe0020
:1008c000829fbe00849fbe00869fbe00889fbe00a0
:1008d0008a9fbe008c9fbe008e1f78002f02b00042
:1008e0000068a900798d82008a8d82009e8d820029
:1008f000ab8d8200908c8200a0bf9f00a18c8200f3
:1009000081bf9f00b28c8200f2b79f00c38c82002f
:10091000e3b79f008805210018407800e94f500098
:1009200083003c00648b8200d4b79f00718b8200ef
:1009300091bf9f00898b82009a8b8200004ce80057
:10094000a08280000000e800a0828800411f2000f3
:10095000810f50000400340010002000b082880095
:100960000000eb00a0828800408280000000e000d0
:1009700006003200907a82000000e800907a8a0037
:1009800051568300810f50000c023e0050828000bf
:100990000000e00006003200a07a82000000e800bb
:1009a000a07a8a0061568300810f5000fe013e004c
:1009b000304d83000000e00006003200b04d83009f
:1009c0000000e800b04d8b0071568300810f50008d
:1009d000ff013e00001083000000e000060032002e
:1009e000f02183000000e800f0218b008156830095
:1009f000810f5000de013e00c02183000000e800ae
:100a0000c0218b00e02183000000e800e0218b0082
:100a100080b52100808f540002003600808b8a0050
:100a20008004780080b52100800f55000200360058
:100a3000908b8a00000578000019200020218b008f
:100a400030218b00f1182000818f540001003e00fe
:100a5000808b8a00f0182000800f550002003e00b5
:100a60000000e800908b8a005fb197000200e00070
:100a70000b003a00800c2000808b8a00e01b2500d0
:100a80001004e000bf013200308d8200418d8200f1
:100a900033722200830f5000e08f5800bf013400f2
:100aa0001fb897000000e0000b003a00800c200007
:100ab000908b8a00f01b25001004e000a301320097
:100ac000508d8200618d820032722200820f5000b0
:100ad000e08f5800a3013400908180006100600025
:100ae0008000eb00c000dd0000002000e00f50009f
:100af000e08f580003003200c0122000808b8a0073
:100b0000908b8a002f02b1004f0778004f06be007d
:100b10004f05be004f04be004f03be004f02be0093
:100b20004f01be004f00be003600f9000040060035
:100b3000b27a8200b2b79f00820078000103b2004f
:100b400000032000808f50004c033200001c250061
:100b500090467800e01b250010467800131c250005
:100b600093bf9f00f41b2500c4bf9f00004ceb0007
:100b700010002000a0108b008ccf56000200320025
:100b8000d9cc2c00cadc23000200200003e823009b
:100b9000a07b8200b17b8200101c020000000000dc
:100ba0000000e000fa023500e1042100c1b79f0017
:100bb000628b8200d2b79f00b2818100c381810025
:100bc000090078008a007800181c0200000000006c
:100bd0000000e00034003200ac7b8200bd7b82006c
:100be000afb897000fb89700010178008001780036
:100bf000090078008a007800521b02000000000003
:100c00000c01be00101c0200000000000000e0000b
:100c100080033500afb897000fb897000101780046
:100c200080017800090078008a007800501b0200db
:100c3000000000000001be000c00be00101c0200fd
:100c4000000000000000e000b7043d000c01be0001
:100c50002fba97008fba97000400be00521b020003
:100c6000000000000001be00a27b8a00b37b8a0066
:100c7000c25a2c00737223008002780001027800af
:100c80000500780084007800101c020000000000bd
:100c90000000e00004003d00c05a2c0071722300e7
:100ca000a07b8a00b17b8a009fb997001346780029
:100cb0004fba9700944678008d4f560002003200dc
:100cc000decc2c00cbdc23000200200003e8230054
:100cd000c07b8200d17b8200101c0200000000005b
:100ce0000000e0006e023500f0042100a0b79f0074
:100cf000718b820091bf9f00dc818100ed818100ba
:100d00000c01be000e0078008b007800181c020059
:100d1000000000000000e00037003200c07b8200cd
:100d2000d17b8200c0bf9f00d1bf9f00ffb0970062
:100d30006fb0970001017800800178000e00780004
:100d40008b007800521b0200000000004fb9970092
:100d5000dfb99700101c0200000000000000e00056
:100d600012033500ffb097006fb0970001017800c3
:100d7000800178000e0078008b007800501b020084
:100d8000000000000001be004fb89700dfb89700d8
:100d9000101c0200000000000000e0005d043d00a7
:100da0004fb99700dfb997007fb29700efb2970075
:100db0000400be00521b0200000000000001be0043
:100dc000c27b8a00d37b8a00c25a2c007372230034
:100dd0000002be000400be00101c02000000000063
:100de0000000e00004003d00c05a2c007172230096
:100df000c07b8a00d17b8a00b2818100c3818100df
:100e0000090078008a007800181c02000000000029
:100e10000000e0001f023200a07b8200b17b820054
:100e2000b0818900c181890062692500434f230098
:100e3000c41a0200000000000001be0000002000f3
:100e400001f82300fe190200000000000001be00ae
:100e5000528e8a00638e8a0080017800010178003a
:100e600003007800820078001c1c020000000000d3
:100e7000108e8a00218e8a002108a900b18d8a0077
:100e8000c08d8a002108a80011002000c1bf9f006a
:100e90000c01be000e0078008b007800181c0200c8
:100ea000000000000000e00049003200c47b820026
:100eb000d57b8200d4818900e581890062692500a3
:100ec000434f23000400be00e4bf9f00f5bf9f0016
:100ed000c41a0200000000000001be000000200053
:100ee00001f82300fe190200000000000001be000e
:100ef000728e8a00838e8a0080017800010178005a
:100f000003007800820078001c1c02000000000032
:100f10000006be00308e8a00418e8a002388a90018
:100f20009db79f00dd8d8a0080b79f00ec8d8a0001
:100f30002388a80002002000030c24006fba970049
:100f4000ffba97000400be00101c02000000000061
:100f50006fba9700ffba97000000e0008f023d00d3
:100f60001000200090218b002388a900c308800076
:100f7000a20880002388a800830078000000eb000e
:100f800000004100e0804800800f5600818f5e0025
:100f9000830331002388a9001821ef001621ef00f8
:100fa0001a21ef000388a8002388a800020020006f
:100fb000030c24000400be000c1c02000000000012
:100fc0000000e000020035000000eb0090218b00e3
:100fd000cfb997000300e00027003200ac7b82000d
:100fe000bd7b820002002000030c24000c00be0028
:100ff000101c0200000000000000e00095023d000f
:101000001000200080218b002108a90055088000d5
:10101000340880002108a800128e8200238e8200ee
:10102000850078000000eb0000004200e0804800ee
:10103000820f5000838f5800600336002108a900fa
:101040000a21ef000821ef000621ef000108a800a7
:101050002108a80002002000030c24000c00be00a0
:101060000c1c0200000000000000e000020035003f
:101070000000eb0080218b004fb297001404e000c9
:10108000f0003200898b8200afb097001104e000bd
:10109000540032009a8b8200000c21001004e00002
:1010a00006003200818580008100e800818588008b
:1010b00082818200828f500061023e00100c21006c
:1010c0001004e00006003200918580008100e800f5
:1010d0009185880082818200828f500061023e00eb
:1010e000bfb097000148a3000f003200000a2100a2
:1010f0001004e00003003200508580000000e8008a
:1011000050858800100a21001004e000030032001e
:10111000608580000000e80060858800200a2100ca
:101120001004e00032023a00d02183000000e80001
:10113000d0218b00e60f400002003600900c20000a
:10114000d0218b0018407800fcfd3700508d8200c4
:10115000618d820083962200830f5000e08f58003b
:101160005dfe3400401f2000908b8a005afe37003d
:101170000000eb0000228b0010002000f00f8b001d
:101180001dfe3700308d8200418d82008496220042
:10119000840f5000e08f580041fe3400401f2000b3
:1011a000808b8a003efe37000000eb0050828800f2
:1011b00010002000107c8a00fdfd37000000eb00cd
:1011c0004082880010002000007c8a00effd37007c
:1011d0000000eb00d00f8b0010002000e00f8b0010
:1011e000fcfd3700c27b8200d37b8200a2bf9f0040
:1011f000b3bf9f0002538300135383002fb897009f
:10120000bfb89700c41a0200000000001c1c0200b6
:1012100000000000b08b8a006c8c8200a00f2000c0
:10122000800f560022023200e38e820083bf9f00af
:101230008fb8970071806000f10f500022033200d8
:10124000ba8b82002fb99700bfb997008e00780043
:101250000b00780001027800800278000400be00d4
:101260000c1c0200000000000000e000020034003e
:101270004a06b000ba8b8a000fb997000208a30093
:101280000c0032000a0078008000eb00141c020001
:1012900000000000c28b8200d38b8200c41a0200bf
:1012a000000000001c1c0200000000000005780087
:1012b000ba8b8a00a00f2000800f5600a5023200d2
:1012c000800c2000800f5600a20232007d83800037
:1012d000b0442000808f5600840236004051200028
:1012e000808f560006003600c00f8300d102200018
:1012f000810f5000020036008002b100c00f8b0049
:1013000080072000800f5600d40232008a05780042
:1013100010042000800f56002b0232008a0578004e
:1013200030022000800f5600150232008a05780036
:10133000401f2000808f550006003600306a2000d4
:10134000808f560003003e00c00f8300808555004b
:10135000bb8b8a0002002000834424002fb8970032
:10136000bfb89700101c0200000000000000e00061
:1013700004003d00c0762000808f5600e2023e004f
:10138000bb8b820002002000031024002fb89700be
:10139000bfb89700101c0200000000000000e00031
:1013a00008003d0040832000808f56001c0236005c
:1013b0000fb897000008a30019023200c05d20009a
:1013c000808545000b0078008000eb00141c0200b3
:1013d000000000000200200003f42300c41a0200f1
:1013e000000000001c1c02000000000080057800c6
:1013f000bb8b8a009a8b82008a8f550026ff3200b1
:1014000002002000030824007fb29700efb097008d
:1014100004037800810378000600be00c41a0200ad
:1014200000000000821a02000000000080804500d9
:10143000810f550066023600000555009a8b8a0020
:1014400015ff3700a07b8200b17b8200c0bf9f00e8
:10145000d1bf9f000253830013538300c41a0200bc
:10146000000000001c1c020000000000a08b8a008d
:101470006c8c8200a00f2000800f56007e0132008d
:10148000d18e8200c1b79f00cfb1970071806100fb
:10149000f10f500090023200ad8b82004fb99700df
:1014a000dfb99700090278008a0278000400be00c4
:1014b0000c1c0200000000000000e00002003400ec
:1014c0004d06b000ad8b8a004fb297000408a30010
:1014d0000c0032000d0078008000eb00141c0200ac
:1014e00000000000c28b8200d38b8200c41a02006d
:1014f000000000001c1c02000000000080067800b4
:10150000ad8b8a00a00f2000800f5600fe01320034
:10151000800c2000800f5600fb0132006a8380009f
:10152000b0442000800f5500e901360040512000f2
:10153000800f550006003600b00f8300d102200056
:10154000810f5000020036008002b100b00f8b0006
:1015500080072000800f5600290232008d04780099
:1015600010042000800f5600710132008d047800b5
:1015700030022000800f56005b0132008d0478009d
:10158000401f2000808f540006003600306a200083
:10159000800f550003003e00b00f8300808454008c
:1015a000a98b8a0002002000834424004fb89700d2
:1015b000dfb89700101c0200000000000000e000ef
:1015c00004003d00c0762000800f55004b023e0015
:1015d000a98b820002002000031024004fb897005e
:1015e000dfb89700101c0200000000000000e000bf
:1015f00008003d0040832000800f55008601360022
:101600004fb097000008a30083013200c05d2000a6
:1016100080844400090078008000eb00141c020064
:10162000000000000200200003f42300c41a02009e
:10163000000000001c1c02000000000000057800f3
:10164000aa8b8a00898b8200890f55008efe32009a
:1016500002002000030824002fba97008fb89700db
:1016600004037800810378000600be00c41a02005b
:1016700000000000821a0200000000008000450007
:10168000818f5400d801360080845400898b8a00f1
:101690007dfe37000001eb00c2bf9f00fcfd37005c
:1016a0008d4f56000300320011c0b300d020260039
:1016b00001487800e18e82000108a300c7003a00cb
:1016c0001fe1a900f4042100a4b79f001404e00066
:1016d0000300320012c0b3007043260002487800b5
:1016e000708b820090bf9f00000178006300510062
:1016f000e20f500061013600e70f51005f01320038
:1017000070f424001004e0000300320011c0b300a4
:1017100090f824000148780090f424001004e000c0
:10172000030032000048eb001000200050218b0025
:10173000a04d83000000e000050032000000eb0037
:10174000a04d8b001fe1a9001000200060218b003c
:10175000009b2600904078000104e00066fd320006
:10176000e1c06000014878001fe1a900e08e82001e
:101770000000a100e08e8a000104e0005efd3a0056
:1017800011c0b30060212600014878005afd3700df
:101790008ccf56000300320011c0b300c0202600d9
:1017a00001487800d18e82000108a30094003a001d
:1017b00011e1a900e0042100c0b79f001004e0007f
:1017c0000300320012c0b3006043260002487800d4
:1017d000628b8200d2b79f0063005100e20f50007d
:1017e00011013600e70f51000f01320060f42400b0
:1017f0001004e0000300320011c0b30080f82400a0
:101800000148780080f424001004e0000300320056
:101810000048eb001000200040218b00904d830019
:101820000000e000050032000000eb00904d8b004e
:1018300011e1a9001000200070218b00009b260000
:10184000904078000104e000dbfc3200e2c0600060
:101850000148780011e1a900d08e82000000a100ab
:10186000d08e8a000104e000d3fc3a0011c0b3001e
:101870006021260001487800cffc370002002000dc
:1018800003f02300890278000a027800050078003e
:1018900084007800c41a02000000000000077800ed
:1018a000810578008e0478000b057800001c250067
:1018b00090467800101c250090bf9f000d487800ce
:1018c000e01b250010467800f11b2500c1bf9f00da
:1018d0008c487800d08e82000018a3007601320078
:1018e000e08e82000010a000e08e8a00020020003e
:1018f00003f023002fba97008fba97000400be00b0
:10190000c41a020000000000f0b79f00e1b79f007a
:1019100000017800a2bf9f008101780083bf9f0073
:1019200002002000030024000e0078008b007800e5
:101930000c1c0200000000000000e0006a013400fe
:10194000328d8200438d8200508d8200618d820035
:10195000800f5100818f59007e013c00c3013d0082
:101960000c04e000a70132000200200003f823006d
:101970000e0078008b007800521b0200000000006f
:101980002fba9700f4b79f000fb99700e2b79f00f6
:10199000800478000105780074fc370090218300f2
:1019a0000000e00081fd32006dfd3700ffb09700c0
:1019b0006fb0970001017800800178004fb8970060
:1019c000dfb89700501b0200000000000001be00bd
:1019d000c27b8a00d37b8a00fbfc3700f204210023
:1019e000a2b79f00738b820093bf9f0044ff370014
:1019f000708580000000e80070858800cafd37000f
:101a0000e3042100c3b79f00648b8200d4b79f001a
:101a100076ff3700afb897000fb897000101780044
:101a2000800178000c00be00501b02000000000086
:101a30000001be00a27b8a00b37b8a008cfc3700c9
:101a40000048eb0011c0b300200c210001487800d1
:101a50009afd3700802183000000e0007dfd320008
:101a600067fd37000048eb0011c0b300300c2100c7
:101a7000014878009afd3700d28e8200c2b79f00dd
:101a80000228a30080fe32000200200003fe230093
:101a90004fb89700dfb89700c41a0200000000009a
:101aa0001c1c020000000000a08b8a0076fe37009c
:101ab000e48e820084bf9f000428a300dcfd320076
:101ac0000200200003fe23002fb89700bfb8970044
:101ad000c41a0200000000001c1c020000000000ec
:101ae000b08b8a00d2fd3700527982006379820080
:101af00061005100e0805900e4f92000840f50009b
:101b0000e08f58009efe3e00cfb0970067806000d7
:101b1000e50f50009afe32004e1add004210de0042
:101b20000000720080844600a98b8a0094fe370072
:101b3000507982006179820061015000e081580093
:101b4000e4c12100840f5100e08f59008bfe3e005c
:101b5000cfb1970067816100e50f510088fe320028
:101b600072002000030020002c1b02000000000077
:101b700080864600ad8b8a008d04780080fe370099
:101b8000707982008179820061015000e081580003
:101b9000e4f92000840f5100e08f5900e4fd3e007d
:101ba0008fb9970067816100e50f5100e0fd3200b9
:101bb0004e0add004200de00000072008005450094
:101bc000bb8b8a00dafd3700707982008179820050
:101bd00061015000e0815800e4c12100840f5100f0
:101be000e08f5900d1fd3e008fb9970067816100f9
:101bf000e50f5100cefd32007200200003002000ee
:101c00002c1b02000000000000054500ba8b8a0072
:101c10008a057800c6fd3700a98b82007dfe37005b
:101c2000bb8b8200e7fd3700408b26001004e000ec
:101c3000eefe320001e0a100d18e8a0064808000b7
:101c4000758080001282810023828100020242009e
:101c500083824a00a2808000b3808000020152008b
:101c600083815a00128289002382890012468b00e8
:101c700023468b000048eb00dcfe3700508b26002b
:101c80001004e0009efe320001e0a100e18e8a0017
:101c900084808000958080003282810043828100b0
:101ca0000202420083824a00c2808000d38080000a
:101cb0000201520083815a003282890043828900e6
:101cc00032468b0043468b000048eb008cfe370009
:101cd000b00f8300f1182000810f50001cfe3e0061
:101ce0008002b000b00f8b0019fe3700c00f8300d8
:101cf000f1182000810f500081fd3e008002b000ed
:101d0000c00f8b007efd3700507982006179820020
:101d100061015000e0815800e4582600840f510012
:101d2000e08f590003003e004fb197000258a30016
:101d30009b0032006a83800030512000800f5500e4
:101d4000e3ff3600c05d2000800f5500fafd3e0025
:101d5000fffd3700707982008179820061015000b7
:101d6000e0815800e4582600840f5100e08f5900ac
:101d700003003e000fb997000258a3008100320013
:101d80007d83800030512000808f5600d7ff3600c1
:101d9000c05d2000808f560053fd3e0058fd370087
:101da0002388a9009fb09700e10888000fb1970031
:101db000d20888002388a8007cfc37002108a900ed
:101dc00073088800620888002108a800a1fc370079
:101dd00080805500810f55005b0031000a054000ee
:101de0009a8b8a00acfc370080005500818f54002c
:101df0005200310089044000898b8a00a2fc370020
:101e0000507982006179820061015000e0815800c0
:101e1000642c2300840f5100e08f5900d3fd3e0055
:101e2000cfb1970067816100e50f5100d3fd32000b
:101e3000c2002000030020002c1b02000000000054
:101e400080864600ad8b8a008d0478003002200029
:101e5000800f5600c9fd3a0023ff370070798200d9
:101e60008179820061015000e0815800642c2300d8
:101e7000840f5100e08f590028fd3e008fb9970074
:101e800067816100e50f510028fd3200c20020008b
:101e9000030020002c1b020000000000000545008c
:101ea000ba8b8a008a05780030022000800f560025
:101eb0001efd3a0032ff3700e08e82000010a100c4
:101ec000e08e8a0089fe3700ba8b82006a09b00072
:101ed000ba8b8a00dbfc3700ad8b82006d09b00045
:101ee000ad8b8a006dfd37002fb89700f0b79f00cb
:101ef0008fb89700e1b79f001cfb3700491fb00067
:101f0000a98b8a00b3fd37004b1fb000bb8b8a0042
:101f10001cfd37000e0078008b007800c07b8a0023
:101f2000d17b8a00a8fb3700090078008a0078007e
:101f3000a07b8a00b17b8a004dfb37008a8b8a0028
:101f40008a04780050fc37009b8b8a000b057800d0
:101f500051fc37000c04e0001800320002002000a1
:101f600003f823000e0278008b0278000400be0004
:101f7000521b020000000000000778008105780075
:101f8000fafa3700a2012000030020002c1b0200f7
:101f90000000000000054500ba8b8a0078ff37007a
:101fa000a2012000030020002c1b02000000000002
:101fb00080864600ad8b8a005eff3700020020005d
:101fc00003fc23000e0078008b0078000c1c02003c
:101fd000000000000000e000e4fa340002002000ed
:101fe00003f823000e0278008b0278000400be0084
:101ff000501b0200000000000007780081057800f7
:10200000dafa37000200200003fc23000e007800fb
:102010008b0078000c1c0200000000000000e000b3
:102020000d0034000200200003f823000e007800a9
:102030008b007800501b020000000000afb9970031
:10204000f3b79f000fba9700e4b79f0080047800b1
:1020500001057800c5fa37002fba9700f4b79f0042
:102060000fb89700e0b79f00c0fa37002fb997006c
:10207000f2b79f008fb99700e3b79f00bbfa370014
:10208000809fbe00829fbe00849fbe003200f80089
:102090003400f80010002000a0018800002020007b
:1020a00090018800000000000b68a900b056830072
:1020b000e10f5000dd003200e20f50001500320049
:1020c000e30f50002b003a00c12383000100e00021
:1020d00035013200e18f5000a8013200e28f50003c
:1020e000b4013200e38f5000d1013200e48f500080
:1020f0006d013200e58f50004c0032003400f900d1
:102100003200f9004f02be004f01be004f00be007a
:1021100000400600c12383000100e00012013200ec
:10212000e18f50008a013200e28f50002601320018
:10213000e38f500063013200e48f5000efff3a005c
:1021400041158000a047260001487800542ea800c1
:102150001000200040248b003400f9003200f90008
:102160004f02be004f01be004f00be0000400600ff
:10217000e8ff3700e40f500011003a00c02383004d
:102180000000e000f2003a0040158000542ea80044
:1021900010002000c0238b00542ea9000006200050
:1021a000401588003400f9003200f9004f02be00eb
:1021b0004f01be004f00be0000400600d5ff3700b3
:1021c000e50f500010003a00c02383000000e0003b
:1021d000d8003a0040158000542ea80010002000be
:1021e000c0238b00542ea900401588003400f9004c
:1021f0003200f9004f02be004f01be004f00be008a
:1022000000400600c3ff3700e60f500012003a00fe
:10221000c02383000000e000eeff3200e10f500019
:10222000fe003200e20f5000b4ff3a00401580007b
:10223000542ea8001000200060248b003400f90008
:102240003200f9004f02be004f01be004f00be0039
:1022500000400600afff3700e70f500022003a00b1
:10226000c12383000100e000a2003200e18f500092
:10227000de003200e28f5000d3003200e38f5000c6
:1022800010013200e48f5000ea003200e58f500068
:1022900080013200e68f50008d013200e78f500040
:1022a00096ff3a0042158000102583002125830007
:1022b00000004100e080480010258b0021258b00a4
:1022c000542ea8001000200040248b003400f90098
:1022d0003200f9004f02be004f01be004f00be00a9
:1022e000004006008bff3700e80f500018003a004e
:1022f000c02383000000e0006e003200e10f5000b8
:10230000ba003200e20f5000af003200e30f50007d
:102310004e013200e40f5000cf00320080248300d1
:10232000e70f500075ff3400542ea8001000200065
:1023300040248b003400f9003200f9004f02be0047
:102340004f01be004f00be000040060071ff370085
:10235000e90f50001c003a00c02383000000e00099
:102360004c003200e10f5000dd003200e20f50005f
:1023700019013200e30f500024013200e40f500035
:10238000c0003200e50f500039013200e60f500066
:102390005aff3a0041158000a04726000148780006
:1023a000542ea8001000200060248b003400f90097
:1023b0003200f9004f02be004f01be004f00be00c8
:1023c0000040060053ff3700ea0f50000e003a00ad
:1023d000c02383000000e00023003200e10f500022
:1023e000d0003200e20f5000eaff32003400f90062
:1023f0003200f9004f02be004f01be004f00be0088
:102400000040060043ff3700eb0f50003bff3a004f
:1024100041158000a047260001487800542ea800ee
:102420001000200060248b00e0ff3700c1238300f0
:102430000100e00007003a0042158000a147260095
:1024400082487800c0238b0050002000401588008f
:102450002aff370041158000a04726000148780078
:10246000542ea80025ff370041158000a047260004
:102470000148780010002000c0238b00614a26002c
:10248000e0e48200008040001000fb00401588005e
:102490001aff370040158000542ea80010002000bd
:1024a000c0238b00542ea900d00a200040158800bc
:1024b00012ff370041158000a04726000148780030
:1024c00010002000c0238b00a2568300f203b2004c
:1024d0008001eb00c010dd00000020009256830058
:1024e0008001eb00020070008380700041158800bd
:1024f00002ff370041158000a04726000148780000
:1025000010002000c0238b00a256830063016100ed
:102510008001eb00c010dd00000020009256830017
:102520008001eb000200700083807000411588007c
:10253000f2fe3700e10f50003aff3a0040158000ec
:1025400020002000c0238b00a822ef00ebfe370004
:10255000e10f5000e9fe3a0041158000542ea8001a
:1025600060248b00e5fe370041158000a04726005f
:102570000148780010002000c0238b00a256830081
:102580000281fb008001eb00c010dd000000200094
:10259000925683008001eb0002007000838070007f
:1025a00041158800d5fe370040158000542ea80044
:1025b00010002000c0238b00542ea9002000200012
:1025c00040158800cdfe370041158000a047260049
:1025d0000148780030002000c0238b0020ad260089
:1025e0001080fb0040158800c4fe370041158000b4
:1025f000a04726000148780020002000c0238b005f
:10260000905683008000eb004809dd004800de00a2
:102610000000710040158800b8fe370040158000aa
:1026200020002000c0238b00c0002000401588003f
:10263000b2fe3700401580004800dd0010258b00f9
:102640000000eb0020258b0050002000c0238b00f1
:10265000a822ef00a9fe370080248300e70f500076
:1026600031ff3c0042158000614a26008080400016
:10267000824878000000e80080248b00a822ef0048
:102680009efe370041158000a047260001487800d3
:1026900050002000c0238b00604a26001000fb0081
:1026a0004015880095fe370040158000500020003e
:1026b000c0238b00a04726001080fb004015880037
:1026c0008efe370041158000a047260001487800a3
:1026d00040002000c0238b00a822ef0087fe3700b7
:1026e00041158000a0472600014878002000200006
:1026f000c0238b00a2568300630161008001eb00c0
:10270000c010dd0000002000925683008001eb0025
:1027100002007000838070000100fb0040158800fb
:1027200076fe370041158000a0472600014878005a
:1027300020002000c0238b00704a2600e1e48200c4
:10274000008040001000fb00401588006bfe370041
:1027500042158000a147260082487800c0238b00e4
:10276000905683008000eb004809dd004800de0041
:10277000000071004015880060fe370040158000a1
:1027800020002000c0238b00a25683000281fb00a2
:102790008001eb00c010dd00000020009256830095
:1027a0008001eb00020070008380700041158800fa
:1027b00052fe370041158000c0238b0090568300e5
:1027c0008000eb004809dd004800de0000007100d9
:1027d0004015880049fe370041158000a0472600bb
:1027e0000148780030002000c0238b009056830001
:1027f0008000eb004809dd004800de0000007100a9
:102800000000fb00401588003cfe370041158000a9
:10281000a04726000148780040002000c0238b001c
:1028200020ad26001000fb004015880033fe370065
:102830004015800040002000c0238b0020ad260002
:102840001080fb00401588002cfe370041158000e9
:10285000a04726000148780040002000c0238b00dc
:102860000000eb0080248b00a822ef0023fe37003d
:1028700041158000a0472600014878006000200034
:10288000c0238b00704a26001000fb004015880012
:102890001afe370042158000102583002125830091
:1028a00000014100e08148004818dd00c810de004a
:1028b000810070004810dd0010258b0021258b0061
:1028c00060002000c0238b00a822ef000bfe370021
:1028d0004415800012258300232583000202420054
:1028e000e08249004829dd00c821de008301710033
:1028f0004821dd0012258b0023258b00c0238b008f
:10290000a822ef00fdfd3700809fbe00821f7800e7
:102910003200f8003400f80010002000a001880008
:102920000020200090018800000000000428a90079
:10293000108f8200e30f50003c003200e20f500085
:102940001c0032008040eb00e10f500014003a0000
:102950004213800065aea80002e8a3004b003a00d5
:102960000200e00006003200020078000008a30028
:10297000010032008140e8000000d100fbff3a0076
:102980000108a3005e003a00f282880065eea9000b
:10299000f0ff23004013880020002000108f8a00e1
:1029a0003400f9003200f9004f0178004f00be00fa
:1029b000004006004213800065eea80002e8a30074
:1029c00045003a000200e0005e003200020078009c
:1029d0008040eb000008a300010032008140e800c5
:1029e0000000d100fbff3a000108a30055003200af
:1029f000202483000000e80020248b0002258b00a7
:102a000065aea900f0ff23004013880030002000cd
:102a1000108f8a003400f9003200f9004f0178006d
:102a20004f00be0000400600e2ff37004213800066
:102a300065aea80002e8a3001e003a000200e00014
:102a400039003200020078008040eb000008a3004b
:102a5000010032008140e8000000d100fbff3a0095
:102a60000108a30030003200302483000000e80099
:102a700030248b003400f9003200f9004f01780057
:102a80004f00be0000400600caff3700e02383006d
:102a90000000e800e0238b00f2248b0065eea90023
:102aa000f0ff23004013880020002000108f8a00d0
:102ab000bbff3700002483000000e80000248b00e7
:102ac0003400f9003200f9004f0178004f00be00d9
:102ad00000400600b7ff3700f02383000000e80045
:102ae000f0238b0002258b0065aea900f0ff2300c8
:102af0004013880030002000108f8a00c5ff370087
:102b0000f2248b00102483000000e80010248b00c6
:102b100065eea900f0ff230040138800200020008c
:102b2000108f8a009eff3700128388003400f9005e
:102b30003200f9004f0178004f00be00004006004f
:102b40009cff37000283880065aea900f0ff2300d8
:102b50004013880030002000108f8a00adff37003e
:102b6000809fbe00829fbe003200f8003400f80053
:102b700010002000a00188000020200090018800a3
:102b8000000000000148a900101083000000e000d0
:102b900029003200e10f500034003200e20f5000f3
:102ba0003f003200e30f50004a003200e40f5000b3
:102bb00055003200e50f500060003200e60f500073
:102bc0006b003200e70f500092003200e80f500017
:102bd0009d003200e90f500081003200ea0f5000e2
:102be000bf003200eb0f5000c9003200ec0f500064
:102bf0006c003200ed0f5000a0003200ee0f5000cc
:102c0000db003200ef0f5000e7003200f00f500001
:102c10009a003200f40f5000f2003200fe0f500014
:102c20006f0032003400f9003200f9004f01be009d
:102c30004f00be000040060040128000346ea80025
:102c40001000200010108b00346ea900b00020008e
:102c5000401288003400f9003200f9004f01be0034
:102c60004f00be0000400600f3ff37004012800016
:102c7000346ea8002000200010108b00346ea900d4
:102c8000a0022000401288003400f9003200f90050
:102c90004f01be004f00be0000400600e6ff3700b7
:102ca00040128000346ea8003000200010108b000d
:102cb000346ea900b0002000401288003400f900f2
:102cc0003200f9004f01be004f00be000040060078
:102cd000d9ff370040128000346ea8004000200069
:102ce00010108b00346ea9000003200040128800f1
:102cf0003400f9003200f9004f01be004f00be0061
:102d000000400600ccff370040128000346ea8005f
:102d10005000200010108b00346ea9001004200019
:102d2000401288003400f9003200f9004f01be0063
:102d30004f00be0000400600bfff37004012800079
:102d4000346ea8006000200010108b00346ea900c3
:102d500020032000401288003400f9003200f900fe
:102d60004f01be004f00be0000400600b2ff37001a
:102d700040128000346ea8007000200010108b00fc
:102d8000346ea90010042000401288003400f900bd
:102d90003200f9004f01be004f00be0000400600a7
:102da000a5ff37004012800090248b000000eb004c
:102db000a0248b00346ea800d000200010108b00df
:102dc000346ea9004822ef003400f9003200f90007
:102dd0004f01be004f00be000040060096ff3700c6
:102de00040128000346ea8004001200010108b00bb
:102df000346ea90080042000401288003400f900dd
:102e00003200f9004f01be004f00be000040060036
:102e100089ff370040128000346ea8008000200037
:102e200010108b00346ea90080032000401288002f
:102e30003400f9003200f9004f01be004f00be001f
:102e4000004006007cff370040128000346ea8006e
:102e50009000200010108b00346ea9007b00400011
:102e6000401288003400f9003200f9004f01be0022
:102e70004f00be00004006006fff37009024830023
:102e8000a12483004809dd00c801de008301710030
:102e90004801dd00604726001000fb000068a30029
:102ea000290032004012800002014000e081490008
:102eb00032798a0043798a0011c0b300f0042500fa
:102ec00001487800346ea8003400f9003200f9009f
:102ed0004f01be004f00be000040060056ff370005
:102ee00040128000346ea800b000200010108b004b
:102ef000346ea9004822ef003400f9003200f900d6
:102f00004f01be004f00be00004006004aff3700e0
:102f1000411280006047260001487800346ea80006
:102f2000c000200010108b00346ea9004822ef0072
:102f30003400f9003200f9004f01be004f00be001e
:102f4000004006003cff37004012800002014000b4
:102f5000e081490012798a0023798a0011c0b30008
:102f6000e004250001487800346ea800d6ff370041
:102f7000411280006047260001487800346ea800a6
:102f8000f000200010108b00346ea9004822ef00e2
:102f90003400f9003200f9004f01be004f00be00be
:102fa0000040060024ff37004012800090248b0070
:102fb0000000eb00a0248b00346ea800000120006c
:102fc00010108b00346ea9004822ef003400f90085
:102fd0003200f9004f01be004f00be000040060065
:102fe00015ff370040128000346ea800b6ff37008e
:102ff0003600f800809fbe00829fbe00849fbe0006
:10300000869fbe00881f780003c8a900b011800009
:1030100000447800d18380000100e00010003200fd
:10302000e1838000420c2100010141000049780049
:103030000100e800e083880001848000810f5000d7
:10304000020035000000eb00e0838800463e0200ed
:1030500001000000b1122000810f50001600340062
:10306000004683000000e0001a003a004083800020
:10307000e70f500005003c00c1f5240080804000af
:103080008848780011002000e1458b000000e8002e
:1030900040838800e80f5000220032004f0478007f
:1030a0004f03be004f02be004f01be004f00be00e6
:1030b0003600f9000040060030012000a011880011
:1030c0001000200010848800004683000000e0000b
:1030d000e6ff320070f42f00618180000100700073
:1030e000608188000002200001002000020321000e
:1030f0001209700052897000420321001209700009
:10310000528970004f0478004f03be004f02be008a
:103110004f01be004f00be003600f900004006001f
:10312000e5ff370010002000507d8a008000eb0092
:1031300041838800e1458b0000468b00f0fd2f00a5
:10314000f1002000848180000002620092818000f2
:103150000101610082017800040178008281880009
:10316000938188004f0478004f03be004f02be00d9
:103170004f01be004f00be003600f90000400600bf
:10318000cdff3700809fbe0003e8a900d0838000f8
:103190000000e00008003a0050838000f145830001
:1031a000808f500011003c000000eb0000468b00b7
:1031b0004f00be000040060050838000e1fa24006a
:1031c00080804000914078000104e000100032004f
:1031d0008100fb00a11188000000e80050838800f6
:1031e000f1458300808f5000efff3400410c210037
:1031f000808040009100fb00a11188000000e800e1
:10320000508388004f00be0000400600eaff3700f0
:103210000000eb0050838800e0ff3700c028a900c1
:10322000ffff3700c068a900ffff3700ffff37002e
:10323000c048a900ffff3700c088a900ffff370082
:10324000c0a8a900ffff3700ffff37003600f800d5
:10325000809fbe00829fbe00849fbe00869fbe00ee
:103260000468a9000a04ab00010032000a04a900a6
:103270000a24ab000a0032002024ab000400320014
:1032800011c0b300109f2600014878002024a90037
:10329000e09e2600a8490200010000000a24a900bf
:1032a0004f03be004f02be004f01be004f00be00e4
:1032b0003600f900004006000088a9000040060022
:1032c0000308a90000400600809fbe0011c0b300a3
:1032d000c0aa2600014878000648a9004f00be0099
:1032e000004006000040da000000fe0000c0da00e6
:1032f000000006000a00fa00e20f500034003e0011
:10330000f0568300e10f500003003200e20f50003e
:1033100011003a000c003700032220000300e000f7
:1033200001003a000040da002002e200020035000d
:103330002822ef0021e2a8002342ab000d003a0052
:103340002342a8000b003700032320000300e00005
:1033500001003a000040da003002e20002003500cd
:103360003822ef0031e2a8003342ab0001003a00fe
:103370003342a800820178000b0037003102fb00c5
:10338000e10f500004003a002322ab00feff3a0098
:1033900024118800030037003322ab00feff3a00ff
:1033a000a41188008301e9000300e000f3ff3a0064
:1033b000e10f500003003a002302ab00feff320091
:1033c0000b0037003302ab00feff3200080037006d
:1033d00033002000b3bf9f00c0bf9f00d1bf9f003c
:1033e000e2bf9f006a805700c0ff07006fb99700d7
:1033f000020078000080fa0000000600889fbe00ee
:103400008a9fbe008c1f7800260107002d01330023
:1034100003866c006450e1002e0032006420e1005d
:10342000330032006150e1002f0032006120e100e2
:103430003100320085855500eb07b00009002000ff
:1034400008042000050037000804440089844c006b
:103450000a0031000603430087834b00000153003c
:1034600081815b00f8ff33000203be000800a0006a
:103470000804440089844c00f6ff3900c639dd0099
:103480008301730001003200130020008904d10081
:103490000884d3000998a300050032000800a700a3
:1034a0000300a0008904d1000884d3008b05e80044
:1034b0008904d1000884d3000001eb000281d2000e
:1034c0001001070001f0a1000cf0a70001f0a0001e
:1034d000050137006420e100070132000801be0049
:1034e0000200be00f7ff37006120e1000201320058
:1034f0006000b800f3ff37000000200001f827004b
:10350000f0ff37000001be00240107000470a7008f
:1035100003f0a1006509b100160032000d0035006e
:103520006828e10006003500f0ff2f00f1ff2700ba
:103530000300e00013003b0001002800000005002c
:1035400000004000818048008502e900fcff3a004d
:1035500008003700f88f420002003c008000eb00ba
:10356000000005008100d1000080d3008502e80042
:10357000fcff3a000300e00002003b006000100086
:10358000e080180000000600889fbe008a9fbe00f1
:103590008c1f7800c3000700ca00330003866c004c
:1035a0006450e100240032006420e1002700320072
:1035b0006150e100220032006120e1002100320070
:1035c0008b854200eb07b1000134b800003ab80027
:1035d0000804420089844a00013ab8000030b8006b
:1035e0008880400009014a000400330000004000c8
:1035f00081804800020149008b05e900c909dd000e
:10360000830170000100320013002000c814de00a6
:103610004814dd004709de001200b200c808de00d1
:1036200008847000b700070001f0a1000cf0a700ab
:1036300001f0a000ac0037006120e100ae003200d4
:103640000801be000200be00f7ff37006150e10034
:10365000fcff3a00a8003700839f68000100e000eb
:1036600002003d0060001000e08018000300e00050
:1036700002003d0060011100e0811900dc0007003c
:103680004f00e00002003b0060001000e0801800e6
:10369000000006004f89de0082017800e400370058
:1036a00003f0a200889fbe008a9fbe008c1f780096
:1036b0007c000700830033006450e1004f003200bb
:1036c0006420e1005200320003826c0007003b00de
:1036d0000905d0000306d000820f54000c065d00df
:1036e00002003900020032008901780003067800e8
:1036f0008582550004003d000003fd008103fd00ac
:103700008502ea008b854200840f720002003b00b4
:1037100060001000e08018006011b8000005eb00a8
:103720007a28e1000a00390006007800c75ddd0054
:10373000f707b200878075002d0037008281710085
:103740000a017800610560008180d1000080d3000b
:103750008502e900f9ff3b00060440008784480029
:1037600002003b0060041400e0841c000988a300f0
:10377000070032008a81710082817100610164005a
:103780008904d1000884d3008b05e80017003700b6
:103790000978a30013003a000b00e0001300340086
:1037a0008b05e9000804440089844c000a44740035
:1037b0000978a3000d003a000b00e0000700340078
:1037c0008b05e9000804440089844c0001003a009c
:1037d0000b0020000978a300f7ff32000001eb0086
:1037e00002003700828171000a017800450007005d
:1037f0000cf0a70001f0a0003b0037006420e100be
:1038000002003a00838f6c003b0033000801be00c9
:103810000200be0034003700f4ff2f009400370090
:1038200014002000920037006011b800ab00370090
:10383000040020008e0037000001be005700070082
:103840000470a70003f0a10003f8a30013003a00de
:103850006509b10010003200090035006928e10057
:1038600002003500010028000000050000004000b3
:10387000818048008502e900fcff3a000000060054
:10388000f88f4200050035008100d1000080d30090
:103890008502e800fcff3a00000006008000eb0013
:1038a000000005000004be003c0007000003be004d
:1038b0000405be000200be0038000700844f7500fa
:1038c000000006000200be006450e1000500360062
:1038d0006420e100020036000968a30001003a00fc
:1038e0000800be000160a0004f0678004f05be0032
:1038f0004f04be0000000600f0ff2f00f1ff27007c
:10390000f9ff370081002000618055000b003d0069
:103910000b00200061fe2f000100e1001d003400bb
:1039200082817100610164008904d1000884d300a0
:103930000000e800faff3a00710020006100640016
:1039400003007000020060000900320061044400be
:10395000e0844c000988a500050032008b05e800d2
:103960006808e10002003a008904d1000884d3000d
:10397000f20f20000258e10005003d00c75ddd00a8
:10398000f907b20089807500080078000000060081
:103990000bf827008b00780000000500c70ade0046
:1039a000f107b200f50fb20008003200e1cf42008b
:1039b000020032000170a00024000500810f700099
:1039c000010032000408050044000500810f70006a
:1039d00002003a00140005008502e90000004000e2
:1039e00081c04800fcff3b000170a00024000500de
:1039f0006022b800060220000000d0008180d200c2
:103a00000482d2008582d2000000a000020252008f
:103a100083825a00030031000202420083824a007e
:103a20000000a1000603e900f3ff3a0000000600d1
:103a3000881f7800030478000300e00007003d00c1
:103a400060001000e080180060011900e08119009a
:103a500002003b0001f02d00030037001f000700ab
:103a600008f0a70001f0a0004f0478000000060055
:103a7000889fbe008a9fbe00841f780089ff0700d0
:103a80004f00780011003300f0ff2f00838f6c008f
:103a900006003b00040565000a00a7000800370087
:103aa00009f0a6001000200008003700820f540023
:103ab000838f5c00030039001000200001003e00ed
:103ac0000000200009f0a7000000ea004f05be003a
:103ad0004f04be000000e00000000600889fbe000a
:103ae0008a9fbe000082700004027100048271008f
:103af000260032000004be000200be006011b800c3
:103b00006b092000950220000182cf000a003900d5
:103b10000541b1000082cf00070039000541b10026
:103b20000982cf00040039000541b1000882cf00ae
:103b3000010039000541b100054252001200320077
:103b40000a003b0082817100610164008100d100a4
:103b50000080d3008984d3000884d3008b05e8005b
:103b60000442e800f7ff3a00070037000804440069
:103b700089844c0000004800818048008b05e900e2
:103b80000442e900f9ff3a005eff07004f05be005e
:103b90004f04be0000000600020ab900001bb90075
:103ba0000200b800810042008100430000000600ce
:103bb0008001780002003700815978000201e90095
:103bc0000200e000fcff3a00000006000c00fa00d2
:103bd000889fbe0000047800f0ff2700d0bf9f0040
:103be0008004eb0099bf9f0088bf9f00a8bf9f0083
:103bf000200c2000b0bf9f0078815700cfb0970005
:103c000070805700100007000fb89700094878002f
:103c10008fb89700088050004f04be000080fa0063
:103c200000000600d0019000028151004240a9002e
:103c30000300340010017800014978000208e80010
:103c40000100780000000600f6874700889fbe004c
:103c50008a9fbe008c9fbe008e1f780000057800f2
:103c6000a1b79f00020778008004eb0092023700a2
:103c7000afb097008100e800a1b79f0051c2b30028
:103c8000814f500003003a00afb097000004eb00f2
:103c900011003700ba0090000000fb000168a3008b
:103ca0000700320009017800800078000a007800df
:103cb000dcff07000000e00005003a007e0237004c
:103cc0008a00780088020700e10f40007a02320083
:103cd0008904e8007802370001007800314178005b
:103ce000d3c2b300834f51000c00320007003c00e8
:103cf000edc15100834f51000a003200ebc1410079
:103d0000834f51000d003a000800370003c3b30091
:103d1000834f510009003a00060037000830a00028
:103d2000edff37000800a000ebff37000810a000ef
:103d3000e9ff37000820a000e7ff37000818a300bc
:103d4000010032000800a1000838a3000100320081
:103d50000820a1008200fb000103b100e98f5000a0
:103d60000c003e00000178008000eb00ea08b9007a
:103d7000b200fb000103b100808040000200780027
:103d80009201fb000303b100e98f5100f7ff3600f9
:103d9000060037008000eb00a3c2b300834f510040
:103da00002003a00ce0078000000e8008005eb0039
:103db000e2c2b300904f110008003a0008e0a000f2
:103dc00064415100d04f1100020032000001780020
:103dd00006003700ce0578000000e80000017800fa
:103de00008003700ea58b9008085410002007800d9
:103df000b201fb000303b100e98f5100f9ff360067
:103e0000f6ff370032407800a2b79f00c3c6b30068
:103e1000834f5000250032000f003c0032c6b30033
:103e2000824f50008800320004003c000004e00093
:103e3000260232006b4151000f00370042c6b3002a
:103e4000824f50001700320065414100824f500000
:103e500094003a001300370032c7b300824f50007d
:103e60001b00320007003c0064415100824f5000ab
:103e7000100032000241e800824f500089003a00f1
:103e80000f00370052c7b300824f50008a00320043
:103e900063414100824f500082003a00e0df9f0002
:103ea00009003700e0df9f00850037000840a000d0
:103eb000d4ff3700e0df9f000860a00080003700db
:103ec000e0df9f000850a0000870a0007c003700d1
:103ed000e0df9f004e007800000678000000e00060
:103ee00001003a006c8326000c0178000000eb0012
:103ef000010037000000e800800141001304e000e9
:103f0000fcff3a00800678000b00e000030032005e
:103f10008d8f5500010031008b0678008005eb0085
:103f20008d8f5000010036008d85500068046400bc
:103f30002a003a00110037003a0090000068a30000
:103f40000700320009017800010220000a00780011
:103f500034ff07000000e00006003a0006003700ca
:103f60008a00780000022000df010700e10f400016
:103f7000010032008904e8008b05e9000b00e00035
:103f8000edff3a008085eb00140037003a00900006
:103f90000068a300090032000c007800b000fb00ac
:103fa00000067800090178000a0078001dff07006c
:103fb0000000e00008003a00080037008c0078009c
:103fc0003100fb00010678008a007800c601070076
:103fd000e10f4000010032008904e8000d00780084
:103fe0008006e9000000e000e8ff3a000800e00079
:103ff000b1013200110037003a0090000068a300c0
:104000000700320009017800010220000a00780050
:1040100004ff07000000e00006003a000600370039
:104020008a00780000022000af010700e10f400085
:10403000010032008904e8008b05e9000b00e00074
:10404000edff3a009c0137004e017800cf91de0071
:10405000c81ade004818dd004812de0004027000b5
:10406000e4df9f000848a300080032000404e000d9
:1040700006003200e14f420004003200f4df9f00ee
:1040800082e79f002d00200002003700f2df9f0032
:104090001d002000e2fd2f000f0141000206e80094
:1040a00099ff3700e0df9f00ecfd2f000f06460070
:1040b0001d00200094ff3700e0df9f00080cb300d4
:1040c00008017800020cb200700064000200e000f9
:1040d0000f003a000000e0000400320064075700bf
:1040e0001e0678009e069000020037004e067800fb
:1040f000cfe6de00e00f5600e08f5e000c003d00d2
:104100003800b30060061600e0861e000800370085
:104110000000e00004003200640757001e0678002b
:104120009e069000020037004e0678008006eb00e5
:104130000b00e00005003a008c8576000bf0a7002c
:104140008b05ea008b05e900cf5dde008801780071
:10415000030cb200e3b79f0000042000808f5100e1
:104160002300320003003c000300e000080032009e
:104170002d003700000820006fb29700800f52001a
:104180000d003200000c2000800f520026003a0083
:10419000e283260010c0b30064014100b20f560054
:1041a000a28f5e001f0039000040e800ea4f500077
:1041b000f9ff3a001b00370010c0b30002012000d5
:1041c00003002000820f5600838f5e001500390027
:1041d000441add00cc11de00830172004411dd00c1
:1041e0000040e800e84f5000f6ff3a000d003700ad
:1041f00010c0b3008200200003002000820f560090
:10420000838f5e0007003900431add00cd11de0008
:10421000830172004311dd000040e800eb4f5000c5
:10422000f6ff3a00e0df9f006fd997000200fb0025
:104230008b0f500002003d00ebdf9f0003003700b2
:10424000808f550001003d00800578000100e000ee
:104250000300320063006400010032008100e900c5
:1042600008e8a300050032008b8f500002003400e4
:104270008b805000010037008000eb00efd99700e1
:104280000300fb000002eb00d4b79f00808f5000ba
:104290000200340000805000d0b79f000828a3001f
:1042a00040003200610164000818a3000f003200d2
:1042b0003a0090000068a30006003200b10220001e
:1042c0000200e000010032008180e800090178006e
:1042d0000d003700b00220000200e00001003200b3
:1042e0000080e8008a0078000e0037000200e0003d
:1042f000100032003a0090000068a300070032006e
:1043000009017800010220000a00780045fe07003c
:104310000000e00006003a00060037008a0078003e
:1043200000022000f0000700e10f40000100320011
:104330008904e8005fb097000000e0005a003200f6
:10434000bcb79f00cdb79f00800678003a00900070
:104350000068a30007003200090178000103200073
:104360000a0078002ffe07000000e00006003a0077
:10437000060037008a00780000032000da000700fa
:10438000e10f4000010032008904e8008d06e900d9
:10439000eeff3a00ddb79f003fb69700cfb697001b
:1043a00041003700dfb197000300e0001a0032003f
:1043b0000838a30018003a00bcb79f00cdb79f0093
:1043c000830678003a0090000068a30007003200de
:1043d00009017800010220000a00780011fe0700a0
:1043e0000000e00006003a00060037008a0078006e
:1043f00000022000bc000700e10f40000100320075
:104400008904e8008d06e900eeff3a00ddb79f0061
:104410003fb69700cfb69700610164000818a3006b
:104420000f0032003a0090000068a300060032003e
:10443000b10220000200e000010032008180e800ab
:10444000090178000d003700b00220000200e000f2
:10445000010032000080e8008a0078000e0037007a
:104460000200e000100032003a0090000068a30053
:104470000700320009017800010220000a007800dc
:10448000e8fd07000000e00006003a0006003700e3
:104490008a0078000002200093000700e10f40002e
:1044a000010032008904e8000b03e900e331b900a0
:1044b000b2b79f004233dd00e083260000034300d3
:1044c0008e01780093b79f000807780006047800f3
:1044d0005d0037008b05e900000420006fb29700f3
:1044e000800f52003900320003003c000400e0005d
:1044f000080032003f00370000082000efb09700ae
:10450000808f500021003200000c2000808f50006e
:1045100038003a000e48a30011003200180278005b
:10452000980290000401be000c00be00f4b79f008a
:1045300085bf9f002efd0700e0df9f000000fb000d
:10454000cf80de007fb297008fba97000401be00d3
:1045500091fd07000006560081865e0007003700c7
:1045600018017800110009000286d800a20020007e
:10457000110009000280d800e1df9f006fd9970089
:104580000243b000e2df9f001a003700508226008d
:104590000e58a3000100320040812600e18326006e
:1045a000810054000c01be008100e90003003300cb
:1045b0008301d1000281d300fbff3700ef006100cf
:1045c0000100400010407800090037000c00be00d8
:1045d0003fb297000402e900030033008100d100dc
:1045e0000080d300fbff3700674060000043b0004d
:1045f000e0df9f00ba0090006fd997000200fb0037
:104600000168a300070032000901780080007800eb
:104610000a00780083fd07000000e00005003a0072
:10462000050037008a0078002f000700e10f4000e6
:10463000010032008904e8003fb297006302520093
:10464000b4b79f00640454000b00e000a1ff3a00df
:104650000e0478001fb797000838a3001600320038
:104660005fb097000000e000130034000004780001
:104670003a0090000068a3000700320009017800aa
:10468000010220000a00780066fd07000000e0003b
:1046900006003a00060037008a0078000002200079
:1046a00011000700e10f4000010032008904e8001a
:1046b0000804e900eeff3a00afb09700114078001f
:1046c000e0df9f000004e00069fd3a000900780087
:1046d0004f0778004f06be004f05be004f04be00d6
:1046e0006f01b10000000600889fbe000104780041
:1046f000b80090008084eb000118a3003a0032005b
:10470000180190000198a30002003a000200e000a6
:1047100035003a000190a000310498008004780030
:10472000f90fb2000200e00002003a0028009000f9
:10473000000c7800ea8f540005003a000178a300cd
:1047400003003a0088007800d0002000e6ff070050
:1047500018009000d8009000810f50000b0032002c
:104760000000e8001004980018007800094878005c
:10477000000ce80011c0b30080ad260001487800ad
:10478000ea8f540018003a000500370088007800ce
:1047900009407800170007008004780012003700f5
:1047a000380090000088a3000f003200180190002c
:1047b000a800900048009000cefa070098009000f2
:1047c000810f500004003200380090000003b30055
:1047d000300498008084eb000000eb001004980087
:1047e00028009000000c7800090078004f04be00fb
:1047f000000006000200fa00889fbe00a0ff9f0094
:1048000001047800380090000068a30033003a00eb
:10481000e200600005003a000003b3003004980095
:10482000110498000080eb002e003700d80490009f
:104830000900e00006003a0012002000e680570060
:1048400048009000abfa07001904980023003700d5
:10485000a80090000100e00008003a00b1ad260079
:1048600021049800010c78002100200051049800d8
:10487000110498000030a000300498001801900046
:10488000a8009000480090009afa070028009000c5
:104890008080eb0011049800aff897000148780081
:1048a000000ce8002ff89700ea4f50000b003a0088
:1048b000380090000088a300080032001801900022
:1048c000a8009000480090008afa07000000eb0062
:1048d00010049800a8009000010c7800aff8970031
:1048e0000100fb004f04be000080fa00000006003b
:020000040000fa
:1048f0000000000021100000422000006330000092
:1049000084400000a5500000c6600000e770000071
:1049100008810000299100004aa100006bb100004d
:104920008cc10000add10000cee10000eff100002d
:104930003112000010020000733200005222000009
:10494000b552000094420000f7720000d6620000e9
:1049500039930000188300007bb300005aa30000c5
:10496000bdd300009cc30000fff30000dee30000a5
:104970006224000043340000200400000114000001
:10498000e6640000c7740000a444000085540000e1
:104990006aa500004bb500002885000009950000bd
:1049a000eee50000cff50000acc500008dd500009d
:1049b0005336000072260000111600003006000079
:1049c000d7760000f666000095560000b446000059
:1049d0005bb700007aa70000199700003887000035
:1049e000dff70000fee700009dd70000bcc7000015
:1049f000c4480000e558000086680000a778000061
:104a00004008000061180000022800002338000060
:104a1000ccc90000edd900008ee90000aff900001c
:104a200048890000699900000aa900002bb900001c
:104a3000f55a0000d44a0000b77a0000966a0000d8
:104a4000711a0000500a0000333a0000122a0000d8
:104a5000fddb0000dccb0000bffb00009eeb000094
:104a6000799b0000588b00003bbb00001aab000094
:104a7000a66c0000877c0000e44c0000c55c0000d0
:104a8000222c0000033c0000600c0000411c0000d0
:104a9000aeed00008ffd0000eccd0000cddd00008c
:104aa0002aad00000bbd0000688d0000499d00008c
:104ab000977e0000b66e0000d55e0000f44e000048
:104ac000133e0000322e0000511e0000700e000048
:104ad0009fff0000beef0000dddf0000fccf000004
:104ae0001bbf00003aaf0000599f0000788f000004
:104af00088910000a9810000cab10000eba100006c
:104b00000cd100002dc100004ef100006fe100004b
:104b100080100000a1000000c2300000e32000006f
:104b2000045000002540000046700000676000004f
:104b3000b983000098930000fba30000dab30000e3
:104b40003dc300001cd300007fe300005ef30000c3
:104b5000b102000090120000f3220000d2320000e7
:104b600035420000145200007762000056720000c7
:104b7000eab50000cba50000a895000089850000db
:104b80006ef500004fe500002cd500000dc50000bb
:104b9000e2340000c3240000a014000081040000df
:104ba00066740000476400002454000005440000bf
:104bb000dba70000fab7000099870000b897000053
:104bc0005fe700007ef700001dc700003cd7000033
:104bd000d3260000f236000091060000b016000057
:104be0005766000076760000154600003456000037
:104bf0004cd900006dc900000ef900002fe900003b
:104c0000c8990000e98900008ab90000aba900003a
:104c1000445800006548000006780000276800003e
:104c2000c0180000e108000082380000a32800003e
:104c30007dcb00005cdb00003feb00001efb0000b2
:104c4000f98b0000d89b0000bbab00009abb0000b2
:104c5000754a0000545a0000376a0000167a0000b6
:104c6000f10a0000d01a0000b32a0000923a0000b6
:104c70002efd00000fed00006cdd00004dcd0000aa
:104c8000aabd00008bad0000e89d0000c98d0000aa
:104c9000267c0000076c0000645c0000454c0000ae
:104ca000a23c0000832c0000e01c0000c10c0000ae
:104cb0001fef00003eff00005dcf00007cdf000022
:104cc0009baf0000babf0000d98f0000f89f000022
:104cd000176e0000367e0000554e0000745e000026
:104ce000932e0000b23e0000d10e0000f01e000026
:104cf000436f000064650000204200006c6f0000fc
:104d0000636b0000203d0000202500006c5800006f
:104d10000a0000000a420000616400002046000012
:104d2000696c0000650a0000000a0000537500006d
:104d30006d20000046610000696c000065640000a1
:104d40000a0000000a530000656e000064200000a5
:104d50004845000058200000466900006c650000ce
:104d60002e2e00002e0a0000000a00004c6f0000ea
:104d700061640000204f00004b0a0000000a0000a0
:104d80004c6f000061640000204600006169000073
:104d90006c650000640a0000002500006c580000eb
:104da000202d0000202500006c5800000a000000a3
:104db0000a0a0000436f00006465000020640000e0
:104dc000756d0000702000002d2d00000a0000000d
:104dd0000a30000078250000303600006c580000d2
:104de00020000000253000003258000020000000a4
:104df0000a0a0000524100004d20000064750000c6
:104e00006d700000202d00002d0a0000000a000037
:104e10000a4c00006f61000064200000636f000016
:104e2000646500002c200000647500006d700000b7
:104e300020520000616d0000206f00007220000011
:104e4000436f0000646500000a4300006f6d0000be
:104e50006d6100006e640000202d00003e20000007
:104e6000000a00000a45000072610000736500003e
:104e7000206100006e640000206c00006f61000083
:104e800064200000636f0000646500003f200000a4
:104e90002879000029200000000a00000a440000d0
:104ea000756d000070200000524100004d3f000071
:104eb0002028000079290000200000000a0a0000d4
:104ec000447500006d700000204300006f64000016
:104ed000653f000020280000792900002000000024
:104ee0000a0a0000566900006e640000756d00003b
:104ef000204500006e670000696e000065650000d7
:104f0000726900006e670000204c00006f610000b5
:104f10006465000072200000312e0000300a00009d
:104f20000000000012010000000200000202000068
:104f300002080000d80400000a0000000001000080
:104f4000010200000301000009020000430000000c
:104f50000201000000c0000032090000040000004f
:104f60000001000002020000010000000524000012
:104f700000100000010400002402000002050000ef
:104f800024060000000100000524000001000000cc
:104f90000107000005810000030800000002000076
:104fa0000904000001000000020a000000000000e7
:104fb00000070000050200000240000000000000a1
:104fc0000705000082020000400000000000000011
:104fd0000403000009040000340300005600000030
:104fe000690000006e000000640000007500000011
:104ff0006d00000020000000450000006e00000071
:1050000067000000690000006e00000065000000fd
:105010006500000072000000690000006e000000e2
:105020006700000020000000490000006e00000042
:10503000630000002e0000000000000000000000df
:105040003403000056000000690000006e000000fc
:1050500064000000750000006d0000002d000000dd
:1050600050000000750000006d000000700000009e
:105070000000000000000000000000000000000030
:105080000000000000000000000000000000000020
:105090000000000000000000000000000000000010
:1050a0000000000000000000a4a70000e8a7000026
:0c50b000eca7000020a80000ba6a000075
:020000040000fa
:1050bc002bc8a9002bc8a800f07f2000818380009a
:1050cc00008060004300dd00d182800001004000c0
:1050dc00f1ff230001006000f2828000810061007a
:1050ec00810f50003d003100008150006283880028
:1050fc00608488007184880003f42100830f5100c0
:10510c00070036000100e00037003a00830f500022
:10511c003f003600f1ff23000080500060838800c0
:10512c00a00f83000001eb00e90f500021003200ba
:10513c006283800000772100800f51001d00360033
:10514c00608180000080a0006081880011d98200fd
:10515c008100e80011d98a00e68f50002e00320041
:10516c0031d982008101d000a01b26008081410032
:10517c00820978008100e80031d98a00e38f500061
:10518c00020034008000eb0031d98a00c11b2600dc
:10519c009100780010804000e11b260011004000b7
:1051ac008180e800110040004200de00608388002e
:1051bc00000005000000eb0010d98a00507c820032
:1051cc000010a100507c8a000000eb00607c8a007b
:1051dc00b01d26000048eb00e1ff37000101500034
:1051ec0062838800c2ff3700810f50000500360033
:1051fc00f2ff230082804000008050006083880012
:10520c00c7ff3700f2ff23008100510000804000ef
:10521c0060838800c2ff3700547c8200657c82006a
:10522c000438a3000c003a00917c82000138a300e2
:10523c0009003a00810c2000d3218300818f51009a
:10524c00050036002600200007002000e1f82400ad
:10525c0091087300d18873000410a000547c8a005c
:10526c00657c8a0011c0b300e304210081497800f9
:10527c0003f02f00030060001001b3006081880070
:10528c00b01d26001004e000b5ff3a00014878007c
:10529c00c0ff2f00817a820000806000807a8a0033
:1052ac00afff37002bc8a9002bc8a800f07f200047
:1052bc00a1838000008060004300dd00e18280005b
:1052cc0001004000f1ff2300010060000283800018
:1052dc0081006100810f50003b00310000815000c3
:1052ec007283880003f42100830f510007003600fd
:1052fc000100e00037003a00830f50003f003600f9
:10530c00f1ff23000080500070838800a00f830001
:10531c000001eb00e90f5000210032007283800085
:10532c0000772100800f51001d0036006081800045
:10533c000090a0006081880021d982008100e800e3
:10534c0021d98a00e68f50002e00320041d982000c
:10535c008101d000201c2600808141008209780048
:10536c008100e80041d98a00e38f5000020034002c
:10537c008000eb0041d98a00411c26009100780086
:10538c0010804000611c2600110040008180e80064
:10539c00110040004200de00708388000000050010
:1053ac000000eb0020d98a00907c82000010a10044
:1053bc00907c8a000000eb00a07c8a00a01d2600d7
:1053cc000048eb00e1ff37000101500072838800b8
:1053dc00c4ff3700810f500005003600f2ff230098
:1053ec00828040000080500070838800c7ff370027
:1053fc00f2ff230081005100008040007083880080
:10540c00c2ff3700517c82000138a3001500320026
:10541c00947c8200a57c82000410a000947c8a00fd
:10542c00a57c8a0011c0b300f304210081497800e7
:10543c0003f02f00030060002001b300608188009e
:10544c00a01d26001004e000c0ff3a0001487800bf
:10545c0030ff2f00817a820000806000807a8a0001
:10546c00baff3700947c8200a57c82000438a3002c
:10547c00e9ff3a00810c2000d3218300818f510079
:10548c00e5ff3600260020000700200061f924000b
:10549c0091087300d1887300dfff3700889fbe002e
:1054ac008a9fbe006000b800d28e82000228a30042
:1054bc003200320060808000718080001282810096
:1054cc00238281000200400083804800a28080007b
:1054dc00b3808000020050008380580010468b007f
:1054ec0021468b00aa7b8200bb7b8200928c8200bf
:1054fc00a38c82000a00be00fe190200000000000e
:10550c00821a0200000000006104b900528281007e
:10551c00638281000a00be00c41a02000000000071
:10552c00821a020000000000024b20000300200041
:10553c002c1b02000000000080c9b900888ab90049
:10554c00040141000040b800810041004a1b0200e8
:10555c000000000092818100a3818100fe190200ed
:10556c0000000000821a0200000000008001780098
:10557c00010178000300780082007800788b260007
:10558c001801fb000208a3000c003200f28c26006c
:10559c001204e0000c003200b2468300c3468300c4
:1055ac00000051008180590012468300234683007d
:1055bc00820f5000838f58000c0034004f05be0042
:1055cc004f04be0000000600b2468300c3468300b1
:1055dc00000041008180490012468300234683006d
:1055ec00820f5000838f5800f4ff35000000eb0051
:1055fc0088ae0200000000001804a1004f05be0098
:10560c004f04be0000000600efff3700889fbe006d
:10561c008a9fbe006000b800e28e82000228a300c0
:10562c0032003200808080009180800032828100c4
:10563c00438281000200400083804800c2808000c9
:10564c00d3808000020050008380580030468b00cd
:10565c0041468b00ca7b8200db7b8200b28c8200cd
:10566c00c38c82000a00be00fe190200000000007c
:10567c00821a0200000000006104b900528281000d
:10568c00638281000a00be00c41a02000000000000
:10569c00821a020000000000024b200003002000d0
:1056ac002c1b02000000000080c9b900888ab900d8
:1056bc00040141000040b800810041004a1b020077
:1056cc000000000092818100a3818100fe1902007c
:1056dc0000000000821a0200000000008001780027
:1056ec00010178000300780082007800788b260096
